{
  "contractName": "Comp",
  "abi": [
    {
      "inputs": [],
      "stateMutability": "nonpayable",
      "type": "constructor"
    },
    {
      "anonymous": false,
      "inputs": [
        {
          "indexed": false,
          "internalType": "string",
          "name": "",
          "type": "string"
        },
        {
          "indexed": false,
          "internalType": "uint256",
          "name": "",
          "type": "uint256"
        }
      ],
      "name": "LogProcess",
      "type": "event"
    },
    {
      "inputs": [
        {
          "internalType": "address",
          "name": "_dai",
          "type": "address"
        },
        {
          "internalType": "address",
          "name": "_cDai",
          "type": "address"
        },
        {
          "internalType": "address",
          "name": "_bToken",
          "type": "address"
        },
        {
          "internalType": "address",
          "name": "_cBToken",
          "type": "address"
        },
        {
          "internalType": "address",
          "name": "_comptroller",
          "type": "address"
        },
        {
          "internalType": "address",
          "name": "_priceFeed",
          "type": "address"
        }
      ],
      "name": "initialize",
      "outputs": [],
      "stateMutability": "nonpayable",
      "type": "function"
    },
    {
      "inputs": [
        {
          "internalType": "uint256",
          "name": "daiAmount",
          "type": "uint256"
        }
      ],
      "name": "investDai",
      "outputs": [],
      "stateMutability": "nonpayable",
      "type": "function"
    },
    {
      "inputs": [],
      "name": "cashOut",
      "outputs": [],
      "stateMutability": "nonpayable",
      "type": "function"
    },
    {
      "inputs": [
        {
          "internalType": "uint256",
          "name": "daiCollateral",
          "type": "uint256"
        }
      ],
      "name": "borrow",
      "outputs": [
        {
          "internalType": "uint256",
          "name": "",
          "type": "uint256"
        }
      ],
      "stateMutability": "nonpayable",
      "type": "function"
    },
    {
      "inputs": [],
      "name": "payback",
      "outputs": [],
      "stateMutability": "nonpayable",
      "type": "function"
    }
  ],
  "bytecode": "0x608060405234801561001057600080fd5b5033600760006101000a81548173ffffffffffffffffffffffffffffffffffffffff021916908373ffffffffffffffffffffffffffffffffffffffff160217905550612450806100616000396000f3fe608060405234801561001057600080fd5b50600436106100575760003560e01c8063793cd71e1461005c578063854bec871461006657806392e10e4714610070578063c5ebeaec1461008c578063cc2a9a5b146100bc575b600080fd5b6100646100d8565b005b61006e6102aa565b005b61008a60048036038101906100859190611562565b6105e0565b005b6100a660048036038101906100a19190611562565b61081a565b6040516100b3919061159e565b60405180910390f35b6100d660048036038101906100d19190611617565b6112ba565b005b600760009054906101000a900473ffffffffffffffffffffffffffffffffffffffff1673ffffffffffffffffffffffffffffffffffffffff163373ffffffffffffffffffffffffffffffffffffffff1614610168576040517f08c379a000000000000000000000000000000000000000000000000000000000815260040161015f90611701565b60405180910390fd5b6000600160009054906101000a900473ffffffffffffffffffffffffffffffffffffffff1673ffffffffffffffffffffffffffffffffffffffff166370a08231306040518263ffffffff1660e01b81526004016101c59190611730565b602060405180830381865afa1580156101e2573d6000803e3d6000fd5b505050506040513d601f19601f820116820180604052508101906102069190611760565b9050600160009054906101000a900473ffffffffffffffffffffffffffffffffffffffff1673ffffffffffffffffffffffffffffffffffffffff1663db006a75826040518263ffffffff1660e01b8152600401610263919061159e565b6020604051808303816000875af1158015610282573d6000803e3d6000fd5b505050506040513d601f19601f820116820180604052508101906102a69190611760565b5050565b600760009054906101000a900473ffffffffffffffffffffffffffffffffffffffff1673ffffffffffffffffffffffffffffffffffffffff163373ffffffffffffffffffffffffffffffffffffffff161461033a576040517f08c379a000000000000000000000000000000000000000000000000000000000815260040161033190611701565b60405180910390fd5b600260009054906101000a900473ffffffffffffffffffffffffffffffffffffffff1673ffffffffffffffffffffffffffffffffffffffff1663095ea7b3600360009054906101000a900473ffffffffffffffffffffffffffffffffffffffff1660786040518363ffffffff1660e01b81526004016103ba9291906117d2565b6020604051808303816000875af11580156103d9573d6000803e3d6000fd5b505050506040513d601f19601f820116820180604052508101906103fd9190611833565b50600360009054906101000a900473ffffffffffffffffffffffffffffffffffffffff1673ffffffffffffffffffffffffffffffffffffffff16630e75270260646040518263ffffffff1660e01b815260040161045a919061189b565b6020604051808303816000875af1158015610479573d6000803e3d6000fd5b505050506040513d601f19601f8201168201806040525081019061049d9190611760565b506000600160009054906101000a900473ffffffffffffffffffffffffffffffffffffffff1673ffffffffffffffffffffffffffffffffffffffff166370a08231306040518263ffffffff1660e01b81526004016104fb9190611730565b602060405180830381865afa158015610518573d6000803e3d6000fd5b505050506040513d601f19601f8201168201806040525081019061053c9190611760565b9050600160009054906101000a900473ffffffffffffffffffffffffffffffffffffffff1673ffffffffffffffffffffffffffffffffffffffff1663db006a75826040518263ffffffff1660e01b8152600401610599919061159e565b6020604051808303816000875af11580156105b8573d6000803e3d6000fd5b505050506040513d601f19601f820116820180604052508101906105dc9190611760565b5050565b600760009054906101000a900473ffffffffffffffffffffffffffffffffffffffff1673ffffffffffffffffffffffffffffffffffffffff163373ffffffffffffffffffffffffffffffffffffffff1614610670576040517f08c379a000000000000000000000000000000000000000000000000000000000815260040161066790611701565b60405180910390fd5b60008054906101000a900473ffffffffffffffffffffffffffffffffffffffff1673ffffffffffffffffffffffffffffffffffffffff1663095ea7b3600660009054906101000a900473ffffffffffffffffffffffffffffffffffffffff16836040518363ffffffff1660e01b81526004016106ed9291906118b6565b6020604051808303816000875af115801561070c573d6000803e3d6000fd5b505050506040513d601f19601f820116820180604052508101906107309190611833565b506000600160009054906101000a900473ffffffffffffffffffffffffffffffffffffffff1673ffffffffffffffffffffffffffffffffffffffff1663a0712d68836040518263ffffffff1660e01b815260040161078e919061159e565b6020604051808303816000875af11580156107ad573d6000803e3d6000fd5b505050506040513d601f19601f820116820180604052508101906107d19190611760565b905060008114610816576040517f08c379a000000000000000000000000000000000000000000000000000000000815260040161080d9061192b565b60405180910390fd5b5050565b6000600760009054906101000a900473ffffffffffffffffffffffffffffffffffffffff1673ffffffffffffffffffffffffffffffffffffffff163373ffffffffffffffffffffffffffffffffffffffff16146108ac576040517f08c379a00000000000000000000000000000000000000000000000000000000081526004016108a390611701565b60405180910390fd5b60008054906101000a900473ffffffffffffffffffffffffffffffffffffffff1673ffffffffffffffffffffffffffffffffffffffff1663095ea7b3600660009054906101000a900473ffffffffffffffffffffffffffffffffffffffff16846040518363ffffffff1660e01b81526004016109299291906118b6565b6020604051808303816000875af1158015610948573d6000803e3d6000fd5b505050506040513d601f19601f8201168201806040525081019061096c9190611833565b506000600160009054906101000a900473ffffffffffffffffffffffffffffffffffffffff1673ffffffffffffffffffffffffffffffffffffffff1663a0712d68846040518263ffffffff1660e01b81526004016109ca919061159e565b6020604051808303816000875af11580156109e9573d6000803e3d6000fd5b505050506040513d601f19601f82011682018060405250810190610a0d9190611760565b905060008114610a52576040517f08c379a0000000000000000000000000000000000000000000000000000000008152600401610a4990611997565b60405180910390fd5b6000600167ffffffffffffffff811115610a6f57610a6e6119b7565b5b604051908082528060200260200182016040528015610a9d5781602001602082028036833780820191505090505b509050600660009054906101000a900473ffffffffffffffffffffffffffffffffffffffff1681600081518110610ad757610ad66119e6565b5b602002602001019073ffffffffffffffffffffffffffffffffffffffff16908173ffffffffffffffffffffffffffffffffffffffff16815250506000600460009054906101000a900473ffffffffffffffffffffffffffffffffffffffff1673ffffffffffffffffffffffffffffffffffffffff1663c2998238836040518263ffffffff1660e01b8152600401610b6e9190611ad3565b6000604051808303816000875af1158015610b8d573d6000803e3d6000fd5b505050506040513d6000823e3d601f19601f82011682018060405250810190610bb69190611c1f565b9050600081600081518110610bce57610bcd6119e6565b5b602002602001015114610c16576040517f08c379a0000000000000000000000000000000000000000000000000000000008152600401610c0d90611cda565b60405180910390fd5b6000806000600460009054906101000a900473ffffffffffffffffffffffffffffffffffffffff1673ffffffffffffffffffffffffffffffffffffffff16635ec88c79306040518263ffffffff1660e01b8152600401610c769190611730565b606060405180830381865afa158015610c93573d6000803e3d6000fd5b505050506040513d601f19601f82011682018060405250810190610cb79190611cfa565b92509250925060008314610d00576040517f08c379a0000000000000000000000000000000000000000000000000000000008152600401610cf790611dbf565b60405180910390fd5b60008114610d43576040517f08c379a0000000000000000000000000000000000000000000000000000000008152600401610d3a90611e2b565b60405180910390fd5b60008211610d86576040517f08c379a0000000000000000000000000000000000000000000000000000000008152600401610d7d90611ebd565b60405180910390fd5b7f40ec359842b62f1893d6b553c17b1e2047752c49a6c76ad9b935d5c956167fc482604051610db59190611f29565b60405180910390a1600080600460009054906101000a900473ffffffffffffffffffffffffffffffffffffffff1673ffffffffffffffffffffffffffffffffffffffff16638e8f294b600660009054906101000a900473ffffffffffffffffffffffffffffffffffffffff166040518263ffffffff1660e01b8152600401610e3d9190611730565b60408051808303816000875af1158015610e5b573d6000803e3d6000fd5b505050506040513d601f19601f82011682018060405250810190610e7f9190611f57565b915091507f40ec359842b62f1893d6b553c17b1e2047752c49a6c76ad9b935d5c956167fc481604051610eb29190611fe3565b60405180910390a16000600360009054906101000a900473ffffffffffffffffffffffffffffffffffffffff1673ffffffffffffffffffffffffffffffffffffffff1663f8f9da286040518163ffffffff1660e01b8152600401602060405180830381865afa158015610f29573d6000803e3d6000fd5b505050506040513d601f19601f82011682018060405250810190610f4d9190611760565b90507f40ec359842b62f1893d6b553c17b1e2047752c49a6c76ad9b935d5c956167fc481604051610f7e9190612083565b60405180910390a16000600560009054906101000a900473ffffffffffffffffffffffffffffffffffffffff1673ffffffffffffffffffffffffffffffffffffffff1663fc57d4df600660009054906101000a900473ffffffffffffffffffffffffffffffffffffffff166040518263ffffffff1660e01b81526004016110059190611730565b602060405180830381865afa158015611022573d6000803e3d6000fd5b505050506040513d601f19601f820116820180604052508101906110469190611760565b90507f40ec359842b62f1893d6b553c17b1e2047752c49a6c76ad9b935d5c956167fc48160405161107791906120fd565b60405180910390a16000818761108d9190612189565b90507f40ec359842b62f1893d6b553c17b1e2047752c49a6c76ad9b935d5c956167fc4816040516110be9190612252565b60405180910390a1600060646050836110d79190612280565b6110e19190612189565b90507f40ec359842b62f1893d6b553c17b1e2047752c49a6c76ad9b935d5c956167fc481604051611112919061234c565b60405180910390a1600360009054906101000a900473ffffffffffffffffffffffffffffffffffffffff1673ffffffffffffffffffffffffffffffffffffffff1663c5ebeaec670de0b6b3a76400008361116c9190612280565b6040518263ffffffff1660e01b8152600401611188919061159e565b6020604051808303816000875af11580156111a7573d6000803e3d6000fd5b505050506040513d601f19601f820116820180604052508101906111cb9190611760565b506000600360009054906101000a900473ffffffffffffffffffffffffffffffffffffffff1673ffffffffffffffffffffffffffffffffffffffff166317bfdfbc306040518263ffffffff1660e01b81526004016112299190611730565b6020604051808303816000875af1158015611248573d6000803e3d6000fd5b505050506040513d601f19601f8201168201806040525081019061126c9190611760565b90507f40ec359842b62f1893d6b553c17b1e2047752c49a6c76ad9b935d5c956167fc48160405161129d91906123ec565b60405180910390a1809d5050505050505050505050505050919050565b600760009054906101000a900473ffffffffffffffffffffffffffffffffffffffff1673ffffffffffffffffffffffffffffffffffffffff163373ffffffffffffffffffffffffffffffffffffffff161461134a576040517f08c379a000000000000000000000000000000000000000000000000000000000815260040161134190611701565b60405180910390fd5b856000806101000a81548173ffffffffffffffffffffffffffffffffffffffff021916908373ffffffffffffffffffffffffffffffffffffffff16021790555084600160006101000a81548173ffffffffffffffffffffffffffffffffffffffff021916908373ffffffffffffffffffffffffffffffffffffffff16021790555083600260006101000a81548173ffffffffffffffffffffffffffffffffffffffff021916908373ffffffffffffffffffffffffffffffffffffffff16021790555082600360006101000a81548173ffffffffffffffffffffffffffffffffffffffff021916908373ffffffffffffffffffffffffffffffffffffffff16021790555081600460006101000a81548173ffffffffffffffffffffffffffffffffffffffff021916908373ffffffffffffffffffffffffffffffffffffffff16021790555080600560006101000a81548173ffffffffffffffffffffffffffffffffffffffff021916908373ffffffffffffffffffffffffffffffffffffffff16021790555084600660006101000a81548173ffffffffffffffffffffffffffffffffffffffff021916908373ffffffffffffffffffffffffffffffffffffffff160217905550505050505050565b6000604051905090565b600080fd5b600080fd5b6000819050919050565b61153f8161152c565b811461154a57600080fd5b50565b60008135905061155c81611536565b92915050565b60006020828403121561157857611577611522565b5b60006115868482850161154d565b91505092915050565b6115988161152c565b82525050565b60006020820190506115b3600083018461158f565b92915050565b600073ffffffffffffffffffffffffffffffffffffffff82169050919050565b60006115e4826115b9565b9050919050565b6115f4816115d9565b81146115ff57600080fd5b50565b600081359050611611816115eb565b92915050565b60008060008060008060c0878903121561163457611633611522565b5b600061164289828a01611602565b965050602061165389828a01611602565b955050604061166489828a01611602565b945050606061167589828a01611602565b935050608061168689828a01611602565b92505060a061169789828a01611602565b9150509295509295509295565b600082825260208201905092915050565b7f4f6e6c792061646d696e2063616e2063616c6c207468652066756e6374696f6e600082015250565b60006116eb6020836116a4565b91506116f6826116b5565b602082019050919050565b6000602082019050818103600083015261171a816116de565b9050919050565b61172a816115d9565b82525050565b60006020820190506117456000830184611721565b92915050565b60008151905061175a81611536565b92915050565b60006020828403121561177657611775611522565b5b60006117848482850161174b565b91505092915050565b6000819050919050565b6000819050919050565b60006117bc6117b76117b28461178d565b611797565b61152c565b9050919050565b6117cc816117a1565b82525050565b60006040820190506117e76000830185611721565b6117f460208301846117c3565b9392505050565b60008115159050919050565b611810816117fb565b811461181b57600080fd5b50565b60008151905061182d81611807565b92915050565b60006020828403121561184957611848611522565b5b60006118578482850161181e565b91505092915050565b6000819050919050565b600061188561188061187b84611860565b611797565b61152c565b9050919050565b6118958161186a565b82525050565b60006020820190506118b0600083018461188c565b92915050565b60006040820190506118cb6000830185611721565b6118d8602083018461158f565b9392505050565b7f634461692e6d696e74204572726f720000000000000000000000000000000000600082015250565b6000611915600f836116a4565b9150611920826118df565b602082019050919050565b6000602082019050818103600083015261194481611908565b9050919050565b7f634461692e6d696e742829206661696c65640000000000000000000000000000600082015250565b60006119816012836116a4565b915061198c8261194b565b602082019050919050565b600060208201905081810360008301526119b081611974565b9050919050565b7f4e487b7100000000000000000000000000000000000000000000000000000000600052604160045260246000fd5b7f4e487b7100000000000000000000000000000000000000000000000000000000600052603260045260246000fd5b600081519050919050565b600082825260208201905092915050565b6000819050602082019050919050565b611a4a816115d9565b82525050565b6000611a5c8383611a41565b60208301905092915050565b6000602082019050919050565b6000611a8082611a15565b611a8a8185611a20565b9350611a9583611a31565b8060005b83811015611ac6578151611aad8882611a50565b9750611ab883611a68565b925050600181019050611a99565b5085935050505092915050565b60006020820190508181036000830152611aed8184611a75565b905092915050565b600080fd5b6000601f19601f8301169050919050565b611b1482611afa565b810181811067ffffffffffffffff82111715611b3357611b326119b7565b5b80604052505050565b6000611b46611518565b9050611b528282611b0b565b919050565b600067ffffffffffffffff821115611b7257611b716119b7565b5b602082029050602081019050919050565b600080fd5b6000611b9b611b9684611b57565b611b3c565b90508083825260208201905060208402830185811115611bbe57611bbd611b83565b5b835b81811015611be75780611bd3888261174b565b845260208401935050602081019050611bc0565b5050509392505050565b600082601f830112611c0657611c05611af5565b5b8151611c16848260208601611b88565b91505092915050565b600060208284031215611c3557611c34611522565b5b600082015167ffffffffffffffff811115611c5357611c52611527565b5b611c5f84828501611bf1565b91505092915050565b7f636f6d7074726f6c6c65722e656e7465724d61726b6574732829206661696c6560008201527f6400000000000000000000000000000000000000000000000000000000000000602082015250565b6000611cc46021836116a4565b9150611ccf82611c68565b604082019050919050565b60006020820190508181036000830152611cf381611cb7565b9050919050565b600080600060608486031215611d1357611d12611522565b5b6000611d218682870161174b565b9350506020611d328682870161174b565b9250506040611d438682870161174b565b9150509250925092565b7f636f6d7074726f6c6c65722e6765744163636f756e744c69717569646974792860008201527f29206661696c65642e0000000000000000000000000000000000000000000000602082015250565b6000611da96029836116a4565b9150611db482611d4d565b604082019050919050565b60006020820190508181036000830152611dd881611d9c565b9050919050565b7f4163636f756e7420756e64657277617465720000000000000000000000000000600082015250565b6000611e156012836116a4565b9150611e2082611ddf565b602082019050919050565b60006020820190508181036000830152611e4481611e08565b9050919050565b7f4163636f756e7420646f6573206e6f7420686176652065786365737320636f6c60008201527f6c61746572616c00000000000000000000000000000000000000000000000000602082015250565b6000611ea76027836116a4565b9150611eb282611e4b565b604082019050919050565b60006020820190508181036000830152611ed681611e9a565b9050919050565b7f4163636f756e7420686173206c6971756964697479206f663a20000000000000600082015250565b6000611f13601a836116a4565b9150611f1e82611edd565b602082019050919050565b60006040820190508181036000830152611f4281611f06565b9050611f51602083018461158f565b92915050565b60008060408385031215611f6e57611f6d611522565b5b6000611f7c8582860161181e565b9250506020611f8d8582860161174b565b9150509250929050565b7f436f6c6c61746572616c466163746f7220666f722062546f6b656e3a00000000600082015250565b6000611fcd601c836116a4565b9150611fd882611f97565b602082019050919050565b60006040820190508181036000830152611ffc81611fc0565b905061200b602083018461158f565b92915050565b7f43757272656e7420626f72726f7720726174652070657220626c6f636b20666f60008201527f722062746f6b656e3a2000000000000000000000000000000000000000000000602082015250565b600061206d602a836116a4565b915061207882612011565b604082019050919050565b6000604082019050818103600083015261209c81612060565b90506120ab602083018461158f565b92915050565b7f436f6c6c61746572616c50726963653a20000000000000000000000000000000600082015250565b60006120e76011836116a4565b91506120f2826120b1565b602082019050919050565b60006040820190508181036000830152612116816120da565b9050612125602083018461158f565b92915050565b7f4e487b7100000000000000000000000000000000000000000000000000000000600052601260045260246000fd5b7f4e487b7100000000000000000000000000000000000000000000000000000000600052601160045260246000fd5b60006121948261152c565b915061219f8361152c565b9250826121af576121ae61212b565b5b828204905092915050565b7f4d6178696d756d20416d6f756e74206f662062546f6b656e20746f20626f727260008201527f6f772028596f752073686f756c6420626f72726f7720666172206c657373293a60208201527f2000000000000000000000000000000000000000000000000000000000000000604082015250565b600061223c6041836116a4565b9150612247826121ba565b606082019050919050565b6000604082019050818103600083015261226b8161222f565b905061227a602083018461158f565b92915050565b600061228b8261152c565b91506122968361152c565b9250817fffffffffffffffffffffffffffffffffffffffffffffffffffffffffffffffff04831182151516156122cf576122ce61215a565b5b828202905092915050565b7f626f72726f77416d6f756e742063616c63756c6174656420617320383025206f60008201527f66206d6178426f72726f77293a20000000000000000000000000000000000000602082015250565b6000612336602e836116a4565b9150612341826122da565b604082019050919050565b6000604082019050818103600083015261236581612329565b9050612374602083018461158f565b92915050565b7f43757272656e7420616d6f756e7420626f72726f776564206f662062546f6b6560008201527f6e3a200000000000000000000000000000000000000000000000000000000000602082015250565b60006123d66023836116a4565b91506123e18261237a565b604082019050919050565b60006040820190508181036000830152612405816123c9565b9050612414602083018461158f565b9291505056fea2646970667358221220c4f7e5fed676ff80fa11a4041af5573992676df18dd47415e1934c8d72d6d68764736f6c634300080a0033",
  "immutableReferences": {},
  "source": "// SPDX-License-Identifier: MIT\npragma solidity ^0.8.10;\n\n// import a couple of interfaces\nimport \"@openzeppelin/contracts/interfaces/IERC20.sol\";\nimport \"./ComptrollerInterface.sol\";\nimport \"./CTokenInterface.sol\";\n\n\ncontract Comp {\n\n  IERC20 dai;\n  ICErc20 cDai;\n  IERC20 bToken;\n  ICErc20 cBToken;\n  IComptroller comptroller;\n  IPriceFeed priceFeed;\n\n  address addrCDai;\n  address admin;\n\n  event LogProcess(string, uint256);\n\n  // Addresses deoend on network you are deploying to\n  constructor() {\n    admin = msg.sender;\n  }\n\n  // 0. Initialize pointer to compound and erc20 contracts\n  function initialize(address _dai, address _cDai, address _bToken, address _cBToken, address _comptroller, address _priceFeed) external onlyAdmin {\n    dai = IERC20(_dai);\n    cDai = ICErc20(_cDai);\n    bToken = IERC20(_bToken);\n    cBToken = ICErc20(_cBToken);\n    comptroller = IComptroller(_comptroller);\n    priceFeed = IPriceFeed(_priceFeed);\n    addrCDai = _cDai;\n\n  }\n\n  // 1. Provide collateral to compound protocol\n  function investDai(uint256 daiAmount) external onlyAdmin {\n    // the SC needs to have Dai first\n    dai.approve(addrCDai, daiAmount);\n    // This calls the ERC20 transferFrom() from the Dai token -> therefore we must approve frist\n    uint error0 = cDai.mint(daiAmount);\n    require(error0 == 0, \"cDai.mint Error\");\n    // After calling the mint function the SC owns cDai and earns interest on the investment\n  }\n\n  function cashOut() external onlyAdmin {\n    // request the total amount of cDai which consists of investment plus interets\n    uint balance = cDai.balanceOf(address(this));\n    cDai.redeem(balance);\n  }\n\n  function borrow(uint256 daiCollateral) external onlyAdmin returns(uint256) {\n    // the SC needs to have Dai first\n\n    // This calls the ERC20 transferFrom() from the Dai token -> therefore we must approve frist\n    dai.approve(addrCDai, daiCollateral);\n\n    // After calling the mint function the SC owns cDai and earns interest on the investment\n    uint256 error1 = cDai.mint(daiCollateral);\n    require(error1 == 0, 'cDai.mint() failed');\n\n    // Signal to compound protocol that we want to use some of our invested token as collateral for our loan\n    address[] memory markets = new address[](1);\n    markets[0] = addrCDai;\n    uint256[] memory errors = comptroller.enterMarkets(markets); // Function takes an a array of token addresses which we have to create first\n    if (errors[0] != 0) {\n      revert('comptroller.enterMarkets() failed');\n    }\n\n    //find out how much of your borrow token you can get for your collateral amount\n    (uint256 error2, uint256 maxLiquidity, uint256 shortfall) = comptroller.getAccountLiquidity(address(this));\n    if (error2 != 0) {\n      revert('comptroller.getAccountLiquidity() failed.');\n    }\n    require(shortfall == 0, \"Account underwater\");\n    require(maxLiquidity > 0, \"Account does not have excess collateral\");\n    emit LogProcess(\"Account has liquidity of: \", maxLiquidity);\n\n    //find out collateral factor for token you want to borrow\n    (bool isListed, uint256 collateralFactor) = comptroller.markets(addrCDai);\n    emit LogProcess(\"CollateralFactor for bToken:\", collateralFactor);\n\n\n    //get borrow rate added to the borrow amount each block\n    uint256 borrowRate = cBToken.borrowRatePerBlock();\n    emit LogProcess(\"Current borrow rate per block for btoken: \", borrowRate);\n\n    uint256 collateralPrice = priceFeed.getUnderlyingPrice(addrCDai);\n    emit LogProcess(\"CollateralPrice: \", collateralPrice);\n\n    uint256 maxBorrow = maxLiquidity/collateralPrice;\n    emit LogProcess(\"Maximum Amount of bToken to borrow (You should borrow far less): \", maxBorrow);\n\n    uint256 borrowAmount = maxBorrow * 80 / 100;\n    emit LogProcess(\"borrowAmount calculated as 80% of maxBorrow): \", borrowAmount);\n\n    // when borrowing, the amount must be inferior to the collateral minus the collateral factor; must be caluculated first!!!\n    cBToken.borrow(borrowAmount * 10**18);\n\n    // get actual borrow balance\n    uint256 currentBorrow = cBToken.borrowBalanceCurrent(address(this));\n    emit LogProcess(\"Current amount borrowed of bToken: \", currentBorrow);\n\n    return currentBorrow; //\n\n  }\n\n  function payback() external onlyAdmin {\n    // before repaying the loan we must approve the cBat contract to take our bat tokens plus the amount of interests (you can calculate the interest before)\n    bToken.approve(address(cBToken), 120);\n    cBToken.repayBorrow(100);\n\n    //Optional: reimburse collateral immediately as part of this function\n    // request the total amount of cDai which consists of investment plus interets\n    uint balance = cDai.balanceOf(address(this));\n    cDai.redeem(balance);\n\n  }\n\n  modifier onlyAdmin() {\n    require(msg.sender == admin, \"Only admin can call the function\");\n    _;\n  }\n}\n",
  "sourcePath": "C:\\Rula01\\01_Lernen\\MyProjects\\lendingBorrowingCompound\\contracts\\CompContract.sol",
  "compiler": {
    "name": "solc",
    "version": "0.8.10+commit.fc410830.Emscripten.clang"
  },
  "schemaVersion": "3.4.5",
  "updatedAt": "2022-03-16T11:26:31.281Z",
  "networkType": "ethereum",
  "devdoc": {
    "kind": "dev",
    "methods": {},
    "version": 1
  },
  "userdoc": {
    "kind": "user",
    "methods": {},
    "version": 1
  }
}