{
  "contractName": "Comp",
  "abi": [
    {
      "inputs": [
        {
          "internalType": "address",
          "name": "_dai",
          "type": "address"
        },
        {
          "internalType": "address",
          "name": "_cDai",
          "type": "address"
        },
        {
          "internalType": "address",
          "name": "_bat",
          "type": "address"
        },
        {
          "internalType": "address",
          "name": "_cBat",
          "type": "address"
        },
        {
          "internalType": "address",
          "name": "_comptroller",
          "type": "address"
        }
      ],
      "stateMutability": "nonpayable",
      "type": "constructor"
    },
    {
      "inputs": [],
      "name": "invest",
      "outputs": [],
      "stateMutability": "nonpayable",
      "type": "function"
    },
    {
      "inputs": [],
      "name": "cashOut",
      "outputs": [],
      "stateMutability": "nonpayable",
      "type": "function"
    },
    {
      "inputs": [],
      "name": "borrow",
      "outputs": [],
      "stateMutability": "nonpayable",
      "type": "function"
    },
    {
      "inputs": [],
      "name": "payback",
      "outputs": [],
      "stateMutability": "nonpayable",
      "type": "function"
    }
  ],
  "bytecode": "0x60806040523480156200001157600080fd5b506040516200118638038062001186833981810160405281019062000037919062000231565b846000806101000a81548173ffffffffffffffffffffffffffffffffffffffff021916908373ffffffffffffffffffffffffffffffffffffffff16021790555083600160006101000a81548173ffffffffffffffffffffffffffffffffffffffff021916908373ffffffffffffffffffffffffffffffffffffffff16021790555082600260006101000a81548173ffffffffffffffffffffffffffffffffffffffff021916908373ffffffffffffffffffffffffffffffffffffffff16021790555081600360006101000a81548173ffffffffffffffffffffffffffffffffffffffff021916908373ffffffffffffffffffffffffffffffffffffffff16021790555080600460006101000a81548173ffffffffffffffffffffffffffffffffffffffff021916908373ffffffffffffffffffffffffffffffffffffffff16021790555033600560006101000a81548173ffffffffffffffffffffffffffffffffffffffff021916908373ffffffffffffffffffffffffffffffffffffffff1602179055505050505050620002b9565b600080fd5b600073ffffffffffffffffffffffffffffffffffffffff82169050919050565b6000620001f982620001cc565b9050919050565b6200020b81620001ec565b81146200021757600080fd5b50565b6000815190506200022b8162000200565b92915050565b600080600080600060a0868803121562000250576200024f620001c7565b5b600062000260888289016200021a565b955050602062000273888289016200021a565b945050604062000286888289016200021a565b935050606062000299888289016200021a565b9250506080620002ac888289016200021a565b9150509295509295909350565b610ebd80620002c96000396000f3fe608060405234801561001057600080fd5b506004361061004c5760003560e01c8063793cd71e14610051578063854bec871461005b578063e68d356914610065578063e8b5e51f1461006f575b600080fd5b610059610079565b005b6100636101bb565b005b61006d610461565b005b6100776107cb565b005b6000600160009054906101000a900473ffffffffffffffffffffffffffffffffffffffff1673ffffffffffffffffffffffffffffffffffffffff166370a08231306040518263ffffffff1660e01b81526004016100d69190610972565b602060405180830381865afa1580156100f3573d6000803e3d6000fd5b505050506040513d601f19601f8201168201806040525081019061011791906109d7565b9050600160009054906101000a900473ffffffffffffffffffffffffffffffffffffffff1673ffffffffffffffffffffffffffffffffffffffff1663db006a75826040518263ffffffff1660e01b81526004016101749190610a13565b6020604051808303816000875af1158015610193573d6000803e3d6000fd5b505050506040513d601f19601f820116820180604052508101906101b791906109d7565b5050565b600260009054906101000a900473ffffffffffffffffffffffffffffffffffffffff1673ffffffffffffffffffffffffffffffffffffffff1663095ea7b3600360009054906101000a900473ffffffffffffffffffffffffffffffffffffffff1660786040518363ffffffff1660e01b815260040161023b929190610a73565b6020604051808303816000875af115801561025a573d6000803e3d6000fd5b505050506040513d601f19601f8201168201806040525081019061027e9190610ad4565b50600360009054906101000a900473ffffffffffffffffffffffffffffffffffffffff1673ffffffffffffffffffffffffffffffffffffffff16630e75270260646040518263ffffffff1660e01b81526004016102db9190610b3c565b6020604051808303816000875af11580156102fa573d6000803e3d6000fd5b505050506040513d601f19601f8201168201806040525081019061031e91906109d7565b506000600160009054906101000a900473ffffffffffffffffffffffffffffffffffffffff1673ffffffffffffffffffffffffffffffffffffffff166370a08231306040518263ffffffff1660e01b815260040161037c9190610972565b602060405180830381865afa158015610399573d6000803e3d6000fd5b505050506040513d601f19601f820116820180604052508101906103bd91906109d7565b9050600160009054906101000a900473ffffffffffffffffffffffffffffffffffffffff1673ffffffffffffffffffffffffffffffffffffffff1663db006a75826040518263ffffffff1660e01b815260040161041a9190610a13565b6020604051808303816000875af1158015610439573d6000803e3d6000fd5b505050506040513d601f19601f8201168201806040525081019061045d91906109d7565b5050565b60008054906101000a900473ffffffffffffffffffffffffffffffffffffffff1673ffffffffffffffffffffffffffffffffffffffff1663095ea7b3600160009054906101000a900473ffffffffffffffffffffffffffffffffffffffff166127106040518363ffffffff1660e01b81526004016104e0929190610b92565b6020604051808303816000875af11580156104ff573d6000803e3d6000fd5b505050506040513d601f19601f820116820180604052508101906105239190610ad4565b50600160009054906101000a900473ffffffffffffffffffffffffffffffffffffffff1673ffffffffffffffffffffffffffffffffffffffff1663a0712d686127106040518263ffffffff1660e01b81526004016105819190610bbb565b6020604051808303816000875af11580156105a0573d6000803e3d6000fd5b505050506040513d601f19601f820116820180604052508101906105c491906109d7565b506000600167ffffffffffffffff8111156105e2576105e1610bd6565b5b6040519080825280602002602001820160405280156106105781602001602082028036833780820191505090505b509050600160009054906101000a900473ffffffffffffffffffffffffffffffffffffffff168160008151811061064a57610649610c05565b5b602002602001019073ffffffffffffffffffffffffffffffffffffffff16908173ffffffffffffffffffffffffffffffffffffffff1681525050600460009054906101000a900473ffffffffffffffffffffffffffffffffffffffff1673ffffffffffffffffffffffffffffffffffffffff1663c2998238826040518263ffffffff1660e01b81526004016106df9190610cf2565b6000604051808303816000875af11580156106fe573d6000803e3d6000fd5b505050506040513d6000823e3d601f19601f820116820180604052508101906107279190610e3e565b50600360009054906101000a900473ffffffffffffffffffffffffffffffffffffffff1673ffffffffffffffffffffffffffffffffffffffff1663c5ebeaec60646040518263ffffffff1660e01b81526004016107849190610b3c565b6020604051808303816000875af11580156107a3573d6000803e3d6000fd5b505050506040513d601f19601f820116820180604052508101906107c791906109d7565b5050565b60008054906101000a900473ffffffffffffffffffffffffffffffffffffffff1673ffffffffffffffffffffffffffffffffffffffff1663095ea7b3600160009054906101000a900473ffffffffffffffffffffffffffffffffffffffff166127106040518363ffffffff1660e01b815260040161084a929190610b92565b6020604051808303816000875af1158015610869573d6000803e3d6000fd5b505050506040513d601f19601f8201168201806040525081019061088d9190610ad4565b50600160009054906101000a900473ffffffffffffffffffffffffffffffffffffffff1673ffffffffffffffffffffffffffffffffffffffff1663a0712d686127106040518263ffffffff1660e01b81526004016108eb9190610bbb565b6020604051808303816000875af115801561090a573d6000803e3d6000fd5b505050506040513d601f19601f8201168201806040525081019061092e91906109d7565b50565b600073ffffffffffffffffffffffffffffffffffffffff82169050919050565b600061095c82610931565b9050919050565b61096c81610951565b82525050565b60006020820190506109876000830184610963565b92915050565b6000604051905090565b600080fd5b600080fd5b6000819050919050565b6109b4816109a1565b81146109bf57600080fd5b50565b6000815190506109d1816109ab565b92915050565b6000602082840312156109ed576109ec610997565b5b60006109fb848285016109c2565b91505092915050565b610a0d816109a1565b82525050565b6000602082019050610a286000830184610a04565b92915050565b6000819050919050565b6000819050919050565b6000610a5d610a58610a5384610a2e565b610a38565b6109a1565b9050919050565b610a6d81610a42565b82525050565b6000604082019050610a886000830185610963565b610a956020830184610a64565b9392505050565b60008115159050919050565b610ab181610a9c565b8114610abc57600080fd5b50565b600081519050610ace81610aa8565b92915050565b600060208284031215610aea57610ae9610997565b5b6000610af884828501610abf565b91505092915050565b6000819050919050565b6000610b26610b21610b1c84610b01565b610a38565b6109a1565b9050919050565b610b3681610b0b565b82525050565b6000602082019050610b516000830184610b2d565b92915050565b6000819050919050565b6000610b7c610b77610b7284610b57565b610a38565b6109a1565b9050919050565b610b8c81610b61565b82525050565b6000604082019050610ba76000830185610963565b610bb46020830184610b83565b9392505050565b6000602082019050610bd06000830184610b83565b92915050565b7f4e487b7100000000000000000000000000000000000000000000000000000000600052604160045260246000fd5b7f4e487b7100000000000000000000000000000000000000000000000000000000600052603260045260246000fd5b600081519050919050565b600082825260208201905092915050565b6000819050602082019050919050565b610c6981610951565b82525050565b6000610c7b8383610c60565b60208301905092915050565b6000602082019050919050565b6000610c9f82610c34565b610ca98185610c3f565b9350610cb483610c50565b8060005b83811015610ce5578151610ccc8882610c6f565b9750610cd783610c87565b925050600181019050610cb8565b5085935050505092915050565b60006020820190508181036000830152610d0c8184610c94565b905092915050565b600080fd5b6000601f19601f8301169050919050565b610d3382610d19565b810181811067ffffffffffffffff82111715610d5257610d51610bd6565b5b80604052505050565b6000610d6561098d565b9050610d718282610d2a565b919050565b600067ffffffffffffffff821115610d9157610d90610bd6565b5b602082029050602081019050919050565b600080fd5b6000610dba610db584610d76565b610d5b565b90508083825260208201905060208402830185811115610ddd57610ddc610da2565b5b835b81811015610e065780610df288826109c2565b845260208401935050602081019050610ddf565b5050509392505050565b600082601f830112610e2557610e24610d14565b5b8151610e35848260208601610da7565b91505092915050565b600060208284031215610e5457610e53610997565b5b600082015167ffffffffffffffff811115610e7257610e7161099c565b5b610e7e84828501610e10565b9150509291505056fea2646970667358221220a06a940abf8c8c91caff9a6a00bfc5f921407e5992fe6832bc05b47c6ea1631a64736f6c634300080a0033",
  "immutableReferences": {},
  "source": "// SPDX-License-Identifier: MIT\npragma solidity ^0.8.10;\n\n// import a couple of interfaces\nimport \"@openzeppelin/contracts/interfaces/IERC20.sol\";\nimport \"./ComptrollerInterface.sol\";\nimport \"./CTokenInterface.sol\";\n\n\ncontract Comp {\n  IERC20 dai;\n  ICErc20 cDai;\n  IERC20 bat;\n  ICErc20 cBat;\n  IComptroller comptroller;\n\n  address admin;\n\n  // Addresses deoend on network you are deploying to\n  constructor(address _dai, address _cDai, address _bat, address _cBat, address _comptroller) {\n    dai = IERC20(_dai);\n    cDai = ICErc20(_cDai);\n    bat = IERC20(_bat);\n    cBat = ICErc20(_cBat);\n    comptroller = IComptroller(_comptroller);\n\n    admin = msg.sender;\n  }\n\n  // 1. Provide collateral to compound protocol\n  function invest() external {\n    // the SC needs to have Dai first\n    dai.approve(address(cDai), 10000);\n    // This calls the ERC20 transferFrom() from the Dai token -> therefore we must approve frist\n    cDai.mint(10000);\n    // After calling the mint function the SC owns cDai and earns interest on the investment\n  }\n\n  function cashOut() external {\n    // request the total amount of cDai which consists of investment plus interets\n    uint balance = cDai.balanceOf(address(this));\n    cDai.redeem(balance);\n  }\n\n  function borrow() external {\n    // the SC needs to have Dai first\n    dai.approve(address(cDai), 10000);\n    // This calls the ERC20 transferFrom() from the Dai token -> therefore we must approve frist\n    cDai.mint(10000);\n    // After calling the mint function the SC owns cDai and earns interest on the investment\n\n    // Signal to compound protocol that we want to use some of our invested token as collateral for our loan\n    address[] memory markets = new address[](1);\n    markets[0] = address(cDai);\n    comptroller.enterMarkets(markets); // Function takes an a array of token addresses which we have to create first\n\n    // when borrowing, the amount must be inferior to the collateral minus the collateral factor; must be caluculated first!!!\n    cBat.borrow(100);\n\n  }\n\n  function payback() external {\n    // before repaying the loan we must approve the cBat contract to take our bat tokens plus the amount of interests (you can calculate the interest before)\n    bat.approve(address(cBat), 120);\n    cBat.repayBorrow(100);\n\n    //Optional: reimburse collateral immediately as part of this function\n    // request the total amount of cDai which consists of investment plus interets\n    uint balance = cDai.balanceOf(address(this));\n    cDai.redeem(balance);\n\n  }\n}\n",
  "sourcePath": "C:\\Rula01\\01_Lernen\\EatTheBlocks\\00_EatTheBlocks_lessons\\day31-Compound\\contracts\\CompContract.sol",
  "compiler": {
    "name": "solc",
    "version": "0.8.10+commit.fc410830.Emscripten.clang"
  },
  "schemaVersion": "3.4.5",
  "updatedAt": "2022-03-09T07:36:40.935Z",
  "networkType": "ethereum",
  "devdoc": {
    "kind": "dev",
    "methods": {},
    "version": 1
  },
  "userdoc": {
    "kind": "user",
    "methods": {},
    "version": 1
  }
}