{
  "contractName": "Comp",
  "abi": [
    {
      "inputs": [
        {
          "internalType": "address",
          "name": "_dai",
          "type": "address"
        },
        {
          "internalType": "address",
          "name": "_cDai",
          "type": "address"
        },
        {
          "internalType": "address",
          "name": "_bToken",
          "type": "address"
        },
        {
          "internalType": "address",
          "name": "_cBToken",
          "type": "address"
        },
        {
          "internalType": "address",
          "name": "_comptroller",
          "type": "address"
        }
      ],
      "stateMutability": "nonpayable",
      "type": "constructor"
    },
    {
      "anonymous": false,
      "inputs": [
        {
          "indexed": false,
          "internalType": "string",
          "name": "",
          "type": "string"
        },
        {
          "indexed": false,
          "internalType": "uint256",
          "name": "",
          "type": "uint256"
        }
      ],
      "name": "LogProcess",
      "type": "event"
    },
    {
      "inputs": [
        {
          "internalType": "uint256",
          "name": "daiAmount",
          "type": "uint256"
        }
      ],
      "name": "investDai",
      "outputs": [],
      "stateMutability": "nonpayable",
      "type": "function"
    },
    {
      "inputs": [],
      "name": "cashOut",
      "outputs": [],
      "stateMutability": "nonpayable",
      "type": "function"
    },
    {
      "inputs": [
        {
          "internalType": "uint256",
          "name": "daiCollateral",
          "type": "uint256"
        }
      ],
      "name": "borrow",
      "outputs": [
        {
          "internalType": "uint256",
          "name": "",
          "type": "uint256"
        }
      ],
      "stateMutability": "nonpayable",
      "type": "function"
    },
    {
      "inputs": [],
      "name": "payback",
      "outputs": [],
      "stateMutability": "nonpayable",
      "type": "function"
    }
  ],
  "bytecode": "0x60806040523480156200001157600080fd5b5060405162001e4238038062001e42833981810160405281019062000037919062000231565b846000806101000a81548173ffffffffffffffffffffffffffffffffffffffff021916908373ffffffffffffffffffffffffffffffffffffffff16021790555083600160006101000a81548173ffffffffffffffffffffffffffffffffffffffff021916908373ffffffffffffffffffffffffffffffffffffffff16021790555082600260006101000a81548173ffffffffffffffffffffffffffffffffffffffff021916908373ffffffffffffffffffffffffffffffffffffffff16021790555081600360006101000a81548173ffffffffffffffffffffffffffffffffffffffff021916908373ffffffffffffffffffffffffffffffffffffffff16021790555080600460006101000a81548173ffffffffffffffffffffffffffffffffffffffff021916908373ffffffffffffffffffffffffffffffffffffffff16021790555033600660006101000a81548173ffffffffffffffffffffffffffffffffffffffff021916908373ffffffffffffffffffffffffffffffffffffffff1602179055505050505050620002b9565b600080fd5b600073ffffffffffffffffffffffffffffffffffffffff82169050919050565b6000620001f982620001cc565b9050919050565b6200020b81620001ec565b81146200021757600080fd5b50565b6000815190506200022b8162000200565b92915050565b600080600080600060a0868803121562000250576200024f620001c7565b5b600062000260888289016200021a565b955050602062000273888289016200021a565b945050604062000286888289016200021a565b935050606062000299888289016200021a565b9250506080620002ac888289016200021a565b9150509295509295909350565b611b7980620002c96000396000f3fe608060405234801561001057600080fd5b506004361061004c5760003560e01c8063793cd71e14610051578063854bec871461005b57806392e10e4714610065578063c5ebeaec14610081575b600080fd5b6100596100b1565b005b6100636101f3565b005b61007f600480360381019061007a9190610fa2565b610499565b005b61009b60048036038101906100969190610fa2565b6105fc565b6040516100a89190610fde565b60405180910390f35b6000600160009054906101000a900473ffffffffffffffffffffffffffffffffffffffff1673ffffffffffffffffffffffffffffffffffffffff166370a08231306040518263ffffffff1660e01b815260040161010e919061103a565b602060405180830381865afa15801561012b573d6000803e3d6000fd5b505050506040513d601f19601f8201168201806040525081019061014f919061106a565b9050600160009054906101000a900473ffffffffffffffffffffffffffffffffffffffff1673ffffffffffffffffffffffffffffffffffffffff1663db006a75826040518263ffffffff1660e01b81526004016101ac9190610fde565b6020604051808303816000875af11580156101cb573d6000803e3d6000fd5b505050506040513d601f19601f820116820180604052508101906101ef919061106a565b5050565b600260009054906101000a900473ffffffffffffffffffffffffffffffffffffffff1673ffffffffffffffffffffffffffffffffffffffff1663095ea7b3600360009054906101000a900473ffffffffffffffffffffffffffffffffffffffff1660786040518363ffffffff1660e01b81526004016102739291906110dc565b6020604051808303816000875af1158015610292573d6000803e3d6000fd5b505050506040513d601f19601f820116820180604052508101906102b6919061113d565b50600360009054906101000a900473ffffffffffffffffffffffffffffffffffffffff1673ffffffffffffffffffffffffffffffffffffffff16630e75270260646040518263ffffffff1660e01b815260040161031391906111a5565b6020604051808303816000875af1158015610332573d6000803e3d6000fd5b505050506040513d601f19601f82011682018060405250810190610356919061106a565b506000600160009054906101000a900473ffffffffffffffffffffffffffffffffffffffff1673ffffffffffffffffffffffffffffffffffffffff166370a08231306040518263ffffffff1660e01b81526004016103b4919061103a565b602060405180830381865afa1580156103d1573d6000803e3d6000fd5b505050506040513d601f19601f820116820180604052508101906103f5919061106a565b9050600160009054906101000a900473ffffffffffffffffffffffffffffffffffffffff1673ffffffffffffffffffffffffffffffffffffffff1663db006a75826040518263ffffffff1660e01b81526004016104529190610fde565b6020604051808303816000875af1158015610471573d6000803e3d6000fd5b505050506040513d601f19601f82011682018060405250810190610495919061106a565b5050565b60008054906101000a900473ffffffffffffffffffffffffffffffffffffffff1673ffffffffffffffffffffffffffffffffffffffff1663095ea7b3600160009054906101000a900473ffffffffffffffffffffffffffffffffffffffff16836040518363ffffffff1660e01b81526004016105169291906111c0565b6020604051808303816000875af1158015610535573d6000803e3d6000fd5b505050506040513d601f19601f82011682018060405250810190610559919061113d565b50600160009054906101000a900473ffffffffffffffffffffffffffffffffffffffff1673ffffffffffffffffffffffffffffffffffffffff1663a0712d68826040518263ffffffff1660e01b81526004016105b59190610fde565b6020604051808303816000875af11580156105d4573d6000803e3d6000fd5b505050506040513d601f19601f820116820180604052508101906105f8919061106a565b5050565b60008060009054906101000a900473ffffffffffffffffffffffffffffffffffffffff1673ffffffffffffffffffffffffffffffffffffffff1663095ea7b3600160009054906101000a900473ffffffffffffffffffffffffffffffffffffffff16846040518363ffffffff1660e01b815260040161067c9291906111c0565b6020604051808303816000875af115801561069b573d6000803e3d6000fd5b505050506040513d601f19601f820116820180604052508101906106bf919061113d565b50600160009054906101000a900473ffffffffffffffffffffffffffffffffffffffff1673ffffffffffffffffffffffffffffffffffffffff1663a0712d68836040518263ffffffff1660e01b815260040161071b9190610fde565b6020604051808303816000875af115801561073a573d6000803e3d6000fd5b505050506040513d601f19601f8201168201806040525081019061075e919061106a565b506000600167ffffffffffffffff81111561077c5761077b6111e9565b5b6040519080825280602002602001820160405280156107aa5781602001602082028036833780820191505090505b509050600160009054906101000a900473ffffffffffffffffffffffffffffffffffffffff16816000815181106107e4576107e3611218565b5b602002602001019073ffffffffffffffffffffffffffffffffffffffff16908173ffffffffffffffffffffffffffffffffffffffff16815250506000600460009054906101000a900473ffffffffffffffffffffffffffffffffffffffff1673ffffffffffffffffffffffffffffffffffffffff1663c2998238836040518263ffffffff1660e01b815260040161087b9190611305565b6000604051808303816000875af115801561089a573d6000803e3d6000fd5b505050506040513d6000823e3d601f19601f820116820180604052508101906108c39190611451565b90506000816000815181106108db576108da611218565b5b602002602001015114610923576040517f08c379a000000000000000000000000000000000000000000000000000000000815260040161091a9061151d565b60405180910390fd5b6000806000600460009054906101000a900473ffffffffffffffffffffffffffffffffffffffff1673ffffffffffffffffffffffffffffffffffffffff16635ec88c79306040518263ffffffff1660e01b8152600401610983919061103a565b606060405180830381865afa1580156109a0573d6000803e3d6000fd5b505050506040513d601f19601f820116820180604052508101906109c4919061153d565b92509250925060008314610a0d576040517f08c379a0000000000000000000000000000000000000000000000000000000008152600401610a0490611602565b60405180910390fd5b60008114610a50576040517f08c379a0000000000000000000000000000000000000000000000000000000008152600401610a479061166e565b60405180910390fd5b60008211610a93576040517f08c379a0000000000000000000000000000000000000000000000000000000008152600401610a8a90611700565b60405180910390fd5b7f40ec359842b62f1893d6b553c17b1e2047752c49a6c76ad9b935d5c956167fc482604051610ac2919061176c565b60405180910390a1600080600460009054906101000a900473ffffffffffffffffffffffffffffffffffffffff1673ffffffffffffffffffffffffffffffffffffffff16638e8f294b600360009054906101000a900473ffffffffffffffffffffffffffffffffffffffff166040518263ffffffff1660e01b8152600401610b4a919061103a565b60408051808303816000875af1158015610b68573d6000803e3d6000fd5b505050506040513d601f19601f82011682018060405250810190610b8c919061179a565b915091507f40ec359842b62f1893d6b553c17b1e2047752c49a6c76ad9b935d5c956167fc481604051610bbf9190611826565b60405180910390a16000600360009054906101000a900473ffffffffffffffffffffffffffffffffffffffff1673ffffffffffffffffffffffffffffffffffffffff1663f8f9da286040518163ffffffff1660e01b8152600401602060405180830381865afa158015610c36573d6000803e3d6000fd5b505050506040513d601f19601f82011682018060405250810190610c5a919061106a565b90507f40ec359842b62f1893d6b553c17b1e2047752c49a6c76ad9b935d5c956167fc481604051610c8b91906118c6565b60405180910390a16000600560009054906101000a900473ffffffffffffffffffffffffffffffffffffffff1673ffffffffffffffffffffffffffffffffffffffff1663fc57d4df600160009054906101000a900473ffffffffffffffffffffffffffffffffffffffff166040518263ffffffff1660e01b8152600401610d12919061103a565b602060405180830381865afa158015610d2f573d6000803e3d6000fd5b505050506040513d601f19601f82011682018060405250810190610d53919061106a565b905060008187610d639190611952565b90507f40ec359842b62f1893d6b553c17b1e2047752c49a6c76ad9b935d5c956167fc481604051610d949190611a1b565b60405180910390a160006064601e83610dad9190611a49565b610db79190611952565b9050600360009054906101000a900473ffffffffffffffffffffffffffffffffffffffff1673ffffffffffffffffffffffffffffffffffffffff1663c5ebeaec670de0b6b3a764000083610e0b9190611a49565b6040518263ffffffff1660e01b8152600401610e279190610fde565b6020604051808303816000875af1158015610e46573d6000803e3d6000fd5b505050506040513d601f19601f82011682018060405250810190610e6a919061106a565b506000600360009054906101000a900473ffffffffffffffffffffffffffffffffffffffff1673ffffffffffffffffffffffffffffffffffffffff166317bfdfbc306040518263ffffffff1660e01b8152600401610ec8919061103a565b6020604051808303816000875af1158015610ee7573d6000803e3d6000fd5b505050506040513d601f19601f82011682018060405250810190610f0b919061106a565b90507f40ec359842b62f1893d6b553c17b1e2047752c49a6c76ad9b935d5c956167fc481604051610f3c9190611b15565b60405180910390a1809c50505050505050505050505050919050565b6000604051905090565b600080fd5b600080fd5b6000819050919050565b610f7f81610f6c565b8114610f8a57600080fd5b50565b600081359050610f9c81610f76565b92915050565b600060208284031215610fb857610fb7610f62565b5b6000610fc684828501610f8d565b91505092915050565b610fd881610f6c565b82525050565b6000602082019050610ff36000830184610fcf565b92915050565b600073ffffffffffffffffffffffffffffffffffffffff82169050919050565b600061102482610ff9565b9050919050565b61103481611019565b82525050565b600060208201905061104f600083018461102b565b92915050565b60008151905061106481610f76565b92915050565b6000602082840312156110805761107f610f62565b5b600061108e84828501611055565b91505092915050565b6000819050919050565b6000819050919050565b60006110c66110c16110bc84611097565b6110a1565b610f6c565b9050919050565b6110d6816110ab565b82525050565b60006040820190506110f1600083018561102b565b6110fe60208301846110cd565b9392505050565b60008115159050919050565b61111a81611105565b811461112557600080fd5b50565b60008151905061113781611111565b92915050565b60006020828403121561115357611152610f62565b5b600061116184828501611128565b91505092915050565b6000819050919050565b600061118f61118a6111858461116a565b6110a1565b610f6c565b9050919050565b61119f81611174565b82525050565b60006020820190506111ba6000830184611196565b92915050565b60006040820190506111d5600083018561102b565b6111e26020830184610fcf565b9392505050565b7f4e487b7100000000000000000000000000000000000000000000000000000000600052604160045260246000fd5b7f4e487b7100000000000000000000000000000000000000000000000000000000600052603260045260246000fd5b600081519050919050565b600082825260208201905092915050565b6000819050602082019050919050565b61127c81611019565b82525050565b600061128e8383611273565b60208301905092915050565b6000602082019050919050565b60006112b282611247565b6112bc8185611252565b93506112c783611263565b8060005b838110156112f85781516112df8882611282565b97506112ea8361129a565b9250506001810190506112cb565b5085935050505092915050565b6000602082019050818103600083015261131f81846112a7565b905092915050565b600080fd5b6000601f19601f8301169050919050565b6113468261132c565b810181811067ffffffffffffffff82111715611365576113646111e9565b5b80604052505050565b6000611378610f58565b9050611384828261133d565b919050565b600067ffffffffffffffff8211156113a4576113a36111e9565b5b602082029050602081019050919050565b600080fd5b60006113cd6113c884611389565b61136e565b905080838252602082019050602084028301858111156113f0576113ef6113b5565b5b835b8181101561141957806114058882611055565b8452602084019350506020810190506113f2565b5050509392505050565b600082601f83011261143857611437611327565b5b81516114488482602086016113ba565b91505092915050565b60006020828403121561146757611466610f62565b5b600082015167ffffffffffffffff81111561148557611484610f67565b5b61149184828501611423565b91505092915050565b600082825260208201905092915050565b7f636f6d7074726f6c6c65722e656e7465724d61726b6574732829206661696c6560008201527f6400000000000000000000000000000000000000000000000000000000000000602082015250565b600061150760218361149a565b9150611512826114ab565b604082019050919050565b60006020820190508181036000830152611536816114fa565b9050919050565b60008060006060848603121561155657611555610f62565b5b600061156486828701611055565b935050602061157586828701611055565b925050604061158686828701611055565b9150509250925092565b7f636f6d7074726f6c6c65722e6765744163636f756e744c69717569646974792860008201527f29206661696c65642e0000000000000000000000000000000000000000000000602082015250565b60006115ec60298361149a565b91506115f782611590565b604082019050919050565b6000602082019050818103600083015261161b816115df565b9050919050565b7f4163636f756e7420756e64657277617465720000000000000000000000000000600082015250565b600061165860128361149a565b915061166382611622565b602082019050919050565b600060208201905081810360008301526116878161164b565b9050919050565b7f4163636f756e7420646f6573206e6f7420686176652065786365737320636f6c60008201527f6c61746572616c00000000000000000000000000000000000000000000000000602082015250565b60006116ea60278361149a565b91506116f58261168e565b604082019050919050565b60006020820190508181036000830152611719816116dd565b9050919050565b7f4163636f756e7420686173206c6971756964697479206f663a20000000000000600082015250565b6000611756601a8361149a565b915061176182611720565b602082019050919050565b6000604082019050818103600083015261178581611749565b90506117946020830184610fcf565b92915050565b600080604083850312156117b1576117b0610f62565b5b60006117bf85828601611128565b92505060206117d085828601611055565b9150509250929050565b7f436f6c6c61746572616c466163746f7220666f722062546f6b656e3a00000000600082015250565b6000611810601c8361149a565b915061181b826117da565b602082019050919050565b6000604082019050818103600083015261183f81611803565b905061184e6020830184610fcf565b92915050565b7f43757272656e7420626f72726f7720726174652070657220626c6f636b20666f60008201527f722062746f6b656e3a2000000000000000000000000000000000000000000000602082015250565b60006118b0602a8361149a565b91506118bb82611854565b604082019050919050565b600060408201905081810360008301526118df816118a3565b90506118ee6020830184610fcf565b92915050565b7f4e487b7100000000000000000000000000000000000000000000000000000000600052601260045260246000fd5b7f4e487b7100000000000000000000000000000000000000000000000000000000600052601160045260246000fd5b600061195d82610f6c565b915061196883610f6c565b925082611978576119776118f4565b5b828204905092915050565b7f4d6178696d756d20416d6f756e74206f662062546f6b656e20746f20626f727260008201527f6f772028596f752073686f756c6420626f72726f7720666172206c657373293a60208201527f2000000000000000000000000000000000000000000000000000000000000000604082015250565b6000611a0560418361149a565b9150611a1082611983565b606082019050919050565b60006040820190508181036000830152611a34816119f8565b9050611a436020830184610fcf565b92915050565b6000611a5482610f6c565b9150611a5f83610f6c565b9250817fffffffffffffffffffffffffffffffffffffffffffffffffffffffffffffffff0483118215151615611a9857611a97611923565b5b828202905092915050565b7f43757272656e7420616d6f756e7420626f72726f776564206f662062546f6b6560008201527f6e3a200000000000000000000000000000000000000000000000000000000000602082015250565b6000611aff60238361149a565b9150611b0a82611aa3565b604082019050919050565b60006040820190508181036000830152611b2e81611af2565b9050611b3d6020830184610fcf565b9291505056fea2646970667358221220bca6a1fa1997ed7c1f02f001175dc2ec7308cc4c00b0931ba55c95cd35a008fb64736f6c634300080a0033",
  "immutableReferences": {},
  "source": "// SPDX-License-Identifier: MIT\npragma solidity ^0.8.10;\n\n// import a couple of interfaces\nimport \"@openzeppelin/contracts/interfaces/IERC20.sol\";\nimport \"./ComptrollerInterface.sol\";\nimport \"./CTokenInterface.sol\";\n\n\ncontract Comp {\n\n  IERC20 dai;\n  ICErc20 cDai;\n  IERC20 bToken;\n  ICErc20 cBToken;\n  IComptroller comptroller;\n  IPriceFeed priceFeed;\n\n  address admin;\n\n  event LogProcess(string, uint256);\n\n  // Addresses deoend on network you are deploying to\n  constructor(address _dai, address _cDai, address _bToken, address _cBToken, address _comptroller) {\n    dai = IERC20(_dai);\n    cDai = ICErc20(_cDai);\n    bToken = IERC20(_bToken);\n    cBToken = ICErc20(_cBToken);\n    comptroller = IComptroller(_comptroller);\n\n    admin = msg.sender;\n  }\n\n  // 1. Provide collateral to compound protocol\n  function investDai(uint256 daiAmount) external {\n    // the SC needs to have Dai first\n    dai.approve(address(cDai), daiAmount);\n    // This calls the ERC20 transferFrom() from the Dai token -> therefore we must approve frist\n    cDai.mint(daiAmount);\n    // After calling the mint function the SC owns cDai and earns interest on the investment\n  }\n\n  function cashOut() external {\n    // request the total amount of cDai which consists of investment plus interets\n    uint balance = cDai.balanceOf(address(this));\n    cDai.redeem(balance);\n  }\n\n  function borrow(uint256 daiCollateral) external returns(uint256) {\n    // the SC needs to have Dai first\n    dai.approve(address(cDai), daiCollateral);\n    // This calls the ERC20 transferFrom() from the Dai token -> therefore we must approve frist\n    cDai.mint(daiCollateral);\n    // After calling the mint function the SC owns cDai and earns interest on the investment\n\n    // Signal to compound protocol that we want to use some of our invested token as collateral for our loan\n    address[] memory markets = new address[](1);\n    markets[0] = address(cDai);\n    uint256[] memory errors = comptroller.enterMarkets(markets); // Function takes an a array of token addresses which we have to create first\n    if (errors[0] != 0) {\n      revert('comptroller.enterMarkets() failed');\n    }\n\n    //find out how much of your borrow token you can get for your collateral amount\n    (uint256 error2, uint256 maxLiquidity, uint256 shortfall) = comptroller.getAccountLiquidity(address(this));\n    if (error2 != 0) {\n      revert('comptroller.getAccountLiquidity() failed.');\n    }\n    require(shortfall == 0, \"Account underwater\");\n    require(maxLiquidity > 0, \"Account does not have excess collateral\");\n    emit LogProcess(\"Account has liquidity of: \", maxLiquidity);\n\n    //find out collateral factor for token you want to borrow\n    (bool isListed, uint256 collateralFactor) = comptroller.markets(address(cBToken));\n    emit LogProcess(\"CollateralFactor for bToken:\", collateralFactor);\n\n    //get borrow rate added to the borrow Amount each block\n    uint256 borrowRate = cBToken.borrowRatePerBlock();\n    emit LogProcess(\"Current borrow rate per block for btoken: \", borrowRate);\n\n    uint256 collateralPrice = priceFeed.getUnderlyingPrice(address(cDai));\n    uint256 maxBorrow = maxLiquidity/collateralPrice;\n    emit LogProcess(\"Maximum Amount of bToken to borrow (You should borrow far less): \", maxBorrow);\n\n    uint256 borrowAmount = maxBorrow * 30 / 100;\n\n\n    // when borrowing, the amount must be inferior to the collateral minus the collateral factor; must be caluculated first!!!\n    cBToken.borrow(borrowAmount * 10**18);\n\n    // get actual borrow balance\n    uint256 currentBorrow = cBToken.borrowBalanceCurrent(address(this));\n    emit LogProcess(\"Current amount borrowed of bToken: \", currentBorrow);\n\n    return currentBorrow;\n\n  }\n\n  function payback() external {\n    // before repaying the loan we must approve the cBat contract to take our bat tokens plus the amount of interests (you can calculate the interest before)\n    bToken.approve(address(cBToken), 120);\n    cBToken.repayBorrow(100);\n\n    //Optional: reimburse collateral immediately as part of this function\n    // request the total amount of cDai which consists of investment plus interets\n    uint balance = cDai.balanceOf(address(this));\n    cDai.redeem(balance);\n\n  }\n}\n",
  "sourcePath": "C:\\Rula01\\01_Lernen\\MyProjects\\lendingBorrowingCompound\\contracts\\CompContract.sol",
  "compiler": {
    "name": "solc",
    "version": "0.8.10+commit.fc410830.Emscripten.clang"
  },
  "schemaVersion": "3.4.5",
  "updatedAt": "2022-03-10T07:43:04.972Z",
  "networkType": "ethereum",
  "devdoc": {
    "kind": "dev",
    "methods": {},
    "version": 1
  },
  "userdoc": {
    "kind": "user",
    "methods": {},
    "version": 1
  }
}